:020000040800F2
:1000000000A0002019E2000881E2000859AF0008B2
:1000100081E2000881E2000881E20008000000009F
:1000200000000000000000000000000081E2000865
:1000300081E200080000000081E20008656200081B
:1000400081E2000881E2000881E2000881E2000804
:1000500081E2000881E20008A95D0008BD5D00089A
:10006000B95D0008B55D0008B15D00089D6300083A
:10007000956300088D630008856300087D630008B0
:10008000756300086D63000881E2000881E20008E2
:1000900081E2000881E2000881E20008AD5D00080D
:1000A0009D2A0008D92A00088F2A0008FD2A000886
:1000B000CD2A0008BD2A0008AD2A000881E2000808
:1000C00081E2000881E2000881E2000881E2000884
:1000D00081E20008712C0008692C0008612C0008DE
:1000E000A55D000881E2000881E2000881E20008C5
:1000F00081E2000881E2000881E2000881E2000854
:1001000000000000000000000000000081E2000884
:1001100081E2000881E2000881E2000881E2000833
:1001200081E2000881E2000881E2000881E2000823
:1001300081E2000881E200080000000000000000E9
:1001400081E2000881E2000881E20008000000006E
:10015000000000000000000000000000000000009F
:10016000000000000000000081E2000881E20008B9
:1001700081E2000800000000000000000000000014
:080180000000000081E200080C
:1001C0002DE9F04F164DD5B005F1BD036F1C05F1BB
:1001D00002094FF00008A5F11104019355F8113CF4
:1001E000A5F1110A002B41F0168108F10108B8F1C0
:1001F000020F05F1500507F1500709F15009EDD143
:1002000055B0BDE8F08F242841F00881012305F89E
:10021000053C10E04D280CBF02230023F7E700BF88
:10022000FD05002000233C2805F8053C00F0268150
:100230003E2800F0288115F8053C062B40F0278168
:1002400015F80D1C002940F0B28154AB15F8036C71
:1002500006936B1E08933344099315F8023CADF8DE
:100260001E1018B214AA013B0592ADF82800ADF893
:100270002A10ADF81C00FD2B00F27586DFE813F0A4
:100280008101C701CD01D601DD0173067306730636
:100290007306730673067306730673067306730696
:1002A0007306730673067306730673067306730686
:1002B0007306730673067306730673067306730676
:1002C00073068A036E068E04B0079104BD07AD0461
:1002D000DC07C004F307C304FA077306730673064A
:1002E000730608056108AE039E063E05AB089E0432
:1002F000CE075D0582034F06FF02400673060B051D
:10030000680816057A08C908710550057306730652
:1003100009034906EC041F0864013F0864055F05F2
:1003200073066C057306730673067306730673060D
:1003300073067306730673067306730673067306F5
:10034000730673067306EA01F90181027306AD02B2
:10035000550173067306B902CA02D2020C03620386
:10036000730612046204DC037F037306FD03730645
:100370007306730673067705840591057306730685
:1003800073067306730673067306730673067306A5
:100390007306730673067306730673067306730695
:1003A00073067306730673067306F9017306730604
:1003B0007306730673067306730673067306810469
:1003C0007306730673067306730673067306730665
:1003D0007306730673067306730673067306730655
:1003E0007306730673067306730673067306730645
:1003F0007306730673067306730673067306730635
:10040000730673067306730673067306730608068F
:10041000730658067306BD0692079D0702078A07F2
:100420007306F2050406790273064807730673061D
:100430005507660777077C0773067306730673060E
:1004400073067306730673067306730673067306E4
:100450007306730673067306730673063306770412
:1004600073067902730673069E0573067306730698
:100470007306AA077306730673066B0415F80D3C22
:100480002BB90323C3E615F80D3C012BF9D055F821
:10049000110C05F0FCFE0090002800F0888055F853
:1004A000110C05F0F1FE15F8053C013B8346042BC9
:1004B0003FF6A9AE01A252F823F000BF15020008D2
:1004C00025020008D1040008E5040008ED04000836
:1004D00040284FF000039EBF05F8043C05F8030CCC
:1004E000042394E605F8020C052390E615F8042C85
:1004F00015F8033C9A4208D2531C05F8043C5023DB
:1005000003FB08431344187495E615F8022C691E82
:100510005A4013F1FF3304D293450CBF0623002346
:1005200075E611F8010B4240F3E7DFF804B400264A
:1005300094F854319E4280F21C813BF8161005A8B5
:1005400006F0B1F80136F3E7DFF8E8B3002694F8D7
:1005500054319E4280F20D81059B1BF81620591CD8
:1005600005911A700BEB460305A8597801EB810140
:1005700001EB810101F2EE2189B206F094F8013617
:10058000E5E700230DF1530113700123059153702A
:1005900015219170ADF81E30059B069305A914AB8B
:1005A0005046059305F097FE002305F8053CD4F866
:1005B000943323B1504698470023C4F8943315F878
:1005C000053C002B7FF411AE55F8093C002B3FF49D
:1005D0000CAE009A002A7FF408AE54AA0C924FF693
:1005E000FF7214AEADF83420BDF800200B96ADF8C4
:1005F00036200BA8984730B10B9B0C930BA95046A3
:100600000B9605F068FE002345F8093CEDE5BF496F
:10061000042205A806F029F8ABE00D210123517052
:100620000DF15301059113700021B2E70422B8497E
:1006300005A806F01AF800219FE00B22B54905A88D
:1006400006F013F80822B44905A806F00EF80722B0
:10065000B249DEE7E723137094F8F83053700DF1D8
:100660005303059300239370042105A806F007F8AF
:100670007FE0B4F8FE10AA4E05A806F014F8D4F8EE
:100680000021A84B9A420CBFB4F80411B4F806112B
:1006900005A889B206F007F8A34AD4F80811127821
:1006A000C1F3400343EA4203C1F3C00243EA8203B9
:1006B000C1F3401243EAC20301F01001194305A837
:1006C00005F0F1FF0023B4F80C011A464FF2FF7E4B
:1006D0004FF0010C9157B1F1FF3F0CD04EFA02FBE5
:1006E0001BF0010F07D040FA02FB1BF0010F1CBFEB
:1006F0000CFA01F10B4301320C2AEBD1D4F81001B2
:10070000DFF834E20022012606FA02F111EA0E0FA8
:1007100002D0014218BF0B430132202AF4D194F8D1
:10072000CC20D4F814C156074FF0000248BF43F064
:10073000010311461046012606FA02FE1EEA0C0FBE
:1007400007D01EEA030F1CBF06FA00FE41EA0E01A5
:10075000013001321C2AEFD105A805F090FF059B5E
:1007600094F81821591C05911A70BDF92830962B60
:1007700001D001230EE7B4F81A1105A805F093FF84
:10078000F7E7B4F82431B3F5806F684B94BF4FF0AE
:10079000000B4FF0030B002633F91610029341FAB9
:1007A0000BF189B205A8013605F07DFF032E029BEF
:1007B000F2D1DFF888B100263BF8261005A80136F3
:1007C00005F071FF032EF7D105A8002105F06BFF9E
:1007D000002105A805F067FF2DE7DFF864B10026CA
:1007E0003BF8161005A8013605F05DFF082EF7D17D
:1007F000BFE7B4F8561105A805F055FFB4F8581135
:1008000005A805F050FFB4F95A110A2391FBF3F142
:1008100089B2B2E7D4F85C1105A805F030FFB4F84E
:100820006011AAE7B4F864310DF151010591D4F8D3
:100830006811FF2B4FF6FF76A8BFFF23B142A8BF78
:10084000314621EAE171137089B205A805F02BFF4A
:10085000B4F86C1105A805F026FF94F879314BB176
:10086000D4F87C310A215943B142A8BF314621EA6C
:10087000E171CDE7D4F87C1101F30F01C8E794F8DA
:10088000823113700DF1520194F88131059153704A
:100890006FE7B4F8841170E7D4F8903119781170CB
:1008A0005B7853700DF1520105910023D4F890212B
:1008B0001A4401331179059A032B02F101000590C6
:1008C0001170F3D1D4F89031DA79059B591C059158
:1008D0001A70D4F890319A78059B591C05911A70BA
:1008E000D4F89031DA78059B591C05911A70D4F828
:1008F000903105A8598905F0D6FED4F890311A7ABE
:10090000059B591C05911A7033E700BFC8140108F4
:10091000CD140108D2140108DE140108E7140108FF
:10092000B4FF0008005400404C21002014070020B0
:10093000FC200020BA070020C0F11F0A1C0700207D
:10094000280700200023D4F89421D15C059A501C7C
:1009500005901170D4F894211A44917A059A501C8C
:1009600005901170D4F894211A440133117D059A31
:100970000A2B02F1010005901170E4D1F9E62F2253
:10098000AF4946E6D4F894319B7F0DF151010591B2
:100990001370EEE60026D4F8983113F8260003EB26
:1009A000860B05F049FB059B4279591C05911A708D
:1009B000059B9BF80120591C05911A70059B9BF81B
:1009C0000220591C05911A70059B9BF803200136E3
:1009D000591C142E05911A70DDD1CAE600224FF081
:1009E000060BD4F89C01059E0BFB02F1431806F19F
:1009F000010C93F805E0CDF814C086F800E0405CE7
:100A000005994E1C05960870059958784E1C059658
:100A10000870059998784E1C059608700599D87845
:100A20004E1C059608701979059B0132581C0C2A3A
:100A300005901970D5D19CE600264FF0010B3B23A1
:100A4000D4F814110BFA06F20A4212D0F0B2039352
:100A500005F0F2FA0168029108460CF0D1F902990A
:100A6000024605A805F001FE059A039B511C05915D
:100A7000137001361C2EE3D17BE600264FF0010BEC
:100A8000D4F814210BFA06F3134207D0F0B205F0A4
:100A9000D3FA059B4279591C05911A7001361C2E18
:100AA000EED166E6674E05A8318A05F0FCFDB4F884
:100AB000A01105A805F0F7FDB4F8A21105A805F0EE
:100AC000F2FDB4F8A41105A805F0EDFDB4F8AE11DF
:100AD00005A805F0E8FD059A531C05930023137043
:100AE000059A511C05911370059A511C05911370BC
:100AF000059A94F87911501C05901170059AF17AB5
:100B0000501C05901170059A511C05911370D4F872
:100B1000B43105A8198805F0C6FD059B94F86E212F
:100B2000591C05911A70059B94F87221591C059166
:100B30001A70059B94F87121591C05911A7094F84C
:100B40007321DDE60123059A511C059113700133D1
:100B5000092BF8D10DE6DFF8FCB000263BF81610A3
:100B600005A8013605F09FFD042EF7D101E6D4F863
:100B7000C03105A8598805F096FDD4F8C031198810
:100B8000FBE5314B05A8196805F079FD2F4B05A849
:100B9000196805F074FD2E4B196866E5D4F8C41188
:100BA00063E5B4F8C81105A805F07DFDB4F8CA11D5
:100BB00005A805F078FDB4F8CC11DEE594F86E31A7
:100BC000137094F87231537094F87131937094F8F3
:100BD0007331D37015A90591CBE5B4F8741105A84C
:100BE00005F061FDB4F8761105A805F05CFD059BE4
:100BF00094F87821591C05911A70B4F87A11BCE563
:100C000094F8F830C1E60F4E0DF15101337A1370AC
:100C1000059105A8B18A05F046FD318A05A805F0C1
:100C200042FD718A05A805F03EFD059BB27A591C6C
:100C300005911A70F18A05A805F035FD318B9CE508
:100C4000C0FF0008DC200020ACF7FF1FB0F7FF1F3B
:100C5000B4F7FF1FA407002094F8AC3113700DF116
:100C6000520194F8AD3153700591B4F8AE1105A856
:100C700005F019FD059B94F8B021591C05911A70D7
:100C8000B4F8B11105A805F00EFD94F8B32137E6CC
:100C9000C14BDB7A79E6C04E0023059A995D01339A
:100CA000501C082B05901170F7D162E594F8F830CC
:100CB00013700DF15101059105A8D4F8C41105F088
:100CC000DEFCB54B1A7A059B591C05911A70B4F8D5
:100CD000C81105A805F0E7FCB4F8CA1105A805F08D
:100CE000E2FCB4F8CC1105A805F0DDFCB4F87411F1
:100CF00005A805F0D8FCB4F876113EE5A74E06F13C
:100D0000280B16F9031C0023A54A9856884200F0C8
:100D1000BB830C333C2BF7D108365E45F1D128E577
:100D200000260DF151031670314605A8059305F014
:100D3000A6FC002105A805F0A2FC002195E40023F3
:100D400013705370937044E700260DF1530316702F
:100D5000567005939670ECE70DF15103059300234F
:100D600016E60B228F4905A805F07FFCE1E7B4F8F1
:100D7000301205A805F097FCB4F8321205A805F06A
:100D800092FCB4F83412F8E4D4F8383219781170BF
:100D900059785170997891700DF153000590D98868
:100DA000EBE494F83C32137094F83D3253700DF13B
:100DB000530194F83E3205919370DAE4C022002189
:100DC00079480BF045FD4FF0000E784972464FF020
:100DD000010B94F802339E450BDB0DF15103D2B2A7
:100DE0000593734B84F890238DF85020C4F8943306
:100DF000BFE44B7AD8072DD50B7A04EB4303B3F944
:100E00003C31002B26DDCE681301E018B6F808C08F
:100E100002937368C0F84032A0F846C200260BFA6D
:100E200006F010EA0C0019D03046029B2344013230
:100E3000A3F844024FF0020083F84B024FF0040085
:100E4000A3F848C283F84A02D3F84802C3F84C0218
:100E500083F84EB20EF1010E0831BAE70136102EBA
:100E6000DDD1E2E794F8CC305B073FF582AC15F8B2
:100E7000013C0895032B28BF002384F8183106F0A5
:100E80000FF806F0E3F974E408A805F0E3FB70E45A
:100E90007608122E67D84FF0000B0BAB5E450ED8CC
:100EA0004449324600230BA89E4212DC414B0021EC
:100EB000112A14DD012384F8BC33FFF76BBB08A8AB
:100EC000029305F0C7FB029B23F81B000BF1010BFB
:100ED000E4E730F813E021F813E00133E4E723F806
:100EE00012100132E4E708A8D4F8C06105F0B2FBA3
:100EF000708008A8D4F8C06105F0ACFB308038E4FD
:100F000015F8013C84F882312B78089784F88131F8
:100F10002FE408A805F09EFBA4F8840129E4D4F886
:100F2000943115F8010C9877089505F055F820E4F0
:100F3000D4F89401431E0930089A511C08911146B7
:100F400011F8026B03F8016F089151789972D11C66
:100F5000089192781A758342EED10AE415F8013CA3
:100F60000895132B03DD4FF0FF33FFF713BB124A35
:100F7000D4F8980195F800E00897002102F13C0CA4
:100F8000CE000CEB060B9BF805B0F34500F0918208
:100F900001311C29F4D1E6E7DC200020BF06002047
:100FA000E0070020D21401082C080020EC080020E3
:100FB000135D000884090020B4FF000815F8013C07
:100FC00008950B2BCFDC2878D4F89C1108970428BF
:100FD000C9DC03EB430301EB43025071687801F86D
:100FE0001300AB785370EB7893702B79D370AB1DF3
:100FF00008936B791371FFF7BCBB092EB3DDD4F8EE
:1010000090B115F8013C8BF800302B7808970BF164
:1010100004008BF801300022089B591C0891022A19
:10102000197814BF4FF0640E4FF0FF0E714502F1B6
:10103000010228BF7146032A00F8011BECD19A1C5B
:1010400008925A78642A28BF64228BF80720DA1C99
:1010500008929A788BF802201A1D0892DB788BF898
:10106000033008A805F0F6FA0A2EABF80A003FF4A0
:1010700080AB089BD4F89021591C08911B781372FF
:10108000FFF777BB08A805F0E5FA6FF4AF668319A0
:10109000B54EC62B98BF308208A805F0DBFAA4F83D
:1010A000A00108A805F0D6FAA4F8A20108A805F046
:1010B000D1FAA4F8A40108A805F0CCFA089BA4F87A
:1010C000AE011A1D0892DA7884F879211A79F27241
:1010D000063308A80893D4F8B46105F0BBFA089B5E
:1010E00030805A1C08921A4612F8021B08925A784D
:1010F00084F87221DA1C08929A7884F871211A1DFA
:101100000892DB7884F86E1184F87331FFF731BBF5
:10111000DFF85CB2002608A805F09CFA2BF8160050
:101120000136082EF7D1FFF724BB08A805F092FA84
:10113000A4F8300208A805F08DFAA4F8320208A835
:1011400005F088FAA4F83402FFF713BBD4F838622C
:1011500015F8013C33702B7873706B78CDF82090C4
:1011600008A8B37005F076FAF080FFF702BB7F485D
:1011700005F0ACFCFFF7FDBA15F8013C84F83C32F1
:101180002B7884F83D326B78CDF8209084F83E328D
:10119000FFF7EFBA94F8CC3058073FF5EAAA05F00C
:1011A00071FF6CE694F8CC3059073FF5E2AA4FF492
:1011B000C873A4F8D633FFF7DCBA94F8CC305A07DA
:1011C0003FF5D7AA94F8D83343F0040384F8D83312
:1011D000FFF7CFBA94F8CC305B073FF5C4AE4EE6CC
:1011E000002308A8C4F8C43105F01EFAD4F8C431AD
:1011F0001843C4F8C401FFF7BCBA08A805F02AFADE
:10120000A4F8C80108A805F025FAA4F8CA0108A89E
:1012100005F020FAA4F8CC01FFF7ABBA15F8013CB1
:1012200084F86E312B7884F872316B7884F87131E0
:10123000EB1C0893AB7867E708A805F00BFAA4F855
:10124000740108A805F006FA089BA4F876015A1C58
:1012500008921B7884F8783108A805F0FBF9A4F807
:101260007A01FFF786BA15F8013C089584F8F83042
:10127000FFF77FBA3C4E15F8013C337208A8089579
:1012800005F0E8F9B08208A805F0E4F9308208A872
:1012900005F0E0F9089B70825A1C08921B78B37223
:1012A000099B9B1A012B7FF764AA08A805F0D2F9C5
:1012B000F08208A805F0CEF93083FFF75ABA15F886
:1012C000013C84F8AC3108A82B7884F8AD3108973C
:1012D00005F0C0F9089BA4F8AE015A1C08921B78CF
:1012E00084F8B03108A805F0B5F9089BA4F8B1015D
:1012F0005A1C08921B7884F8B331FFF73ABA15F8F4
:10130000016C0895112E3FF72EAE04EB46062B78A4
:1013100086F8CE3108A8089705F09CF940F6CA0374
:101320009842A8BF184640F2EE239842B8BF18462C
:10133000A0F2EE20192390FBF3F086F8CF01FFF71F
:1013400018BA094B15F8012C0895DA72FFF711BA93
:1013500005490023089A501C089012785A5401330A
:10136000082BF7D1FFF705BADC2000207C27010805
:10137000AA09002015F8013C84F8F83008A80023D9
:10138000C4F8C431089505F04FF9D4F8C4311843B6
:10139000089BC4F8C4015A1C08921A785A4B08A832
:1013A0001A7205F057F9A4F8C80108A805F052F917
:1013B000A4F8CA0108A805F04DF9A4F8CC0108A8C2
:1013C00005F048F9A4F8740108A805F043F9A4F859
:1013D0007601FFF7CEB9072396FBF3F3C3EBC30304
:1013E0009E427FF4C0AD089A099B9B1A062B7FF79B
:1013F000C0A9531C089392F9002000230199DE0034
:10140000314491F90210914267D00133052BF5D197
:10141000A9E53E4BEAE43E4EFFF739B894F8CC30EC
:1014200013F004037EF407AFBBF1230F20D1012199
:1014300055F8112C84F8A01084F8B5303549C4F85B
:10144000AC101023C4F8B02084F8B4303248334BC9
:10145000C4F8C830C4F8A420C4F8A82009F05CF887
:1014600003F024FF94F8CC3043F0020384F8CC302E
:1014700094F8CE305B457EF4DEAE294B3360294BC9
:10148000294ADA60FEF7D7BE059B581C05901970F3
:1014900005A836F8011C05F006F9301D33460599FC
:1014A00013F801EF4A1C9842059281F800E0F6D14A
:1014B00032E432441BB292F8402000F8232000EBC3
:1014C00083016B784B70AB788B702B1D0893EB7896
:1014D000CB700022154BFFF716BA04EB060B08A8D9
:1014E0008BF8D02005F0B6F8019AABF8D200731D46
:1014F000093613441644089A511C0891127803F8CF
:10150000012FB342F7D16EE7DC200020C55E000852
:10151000FC9F00205F6300089014010898060020DB
:10152000EFBEADDE00ED00E00400FA050000002093
:101530002DE9F04F994E9A4C326802F582432DED19
:10154000028B1A332360974B1D7889B0002D40F031
:101550004781954FDFF88082DFF880923B78E9B2CF
:101560008B4200F2AE812379013323716379013319
:10157000DBB23C2B00F2AF816371012207A9072087
:1015800007F0D0FB9DF81C305B0640F1AD812022B6
:101590008649612007F0C6FB844B03F1210203F169
:1015A000100153F8040B42F8040B8B42F9D19DF85B
:1015B0001C10072009F030FD002384F8383094F81F
:1015C00038307B4D3C2B06D93C2384F83830A37946
:1015D000002B00F08D810023AB73AB7B13B92A7B0A
:1015E000022A30D12B7B23B940F2DC536386238659
:1015F000A386704B95ED027A1B881F0758BFE38DB9
:10160000F3EE047A58BF43F00403B4EEE77A58BF10
:10161000E385F1EE10FA40F16D8194F83930E28DF6
:101620000133DBB222F00401E1853C2B40F264512E
:1016300084F83930E18605D93C2322F0050284F88C
:101640003930E2850123D5ED027A9FED5B7A2B7468
:10165000F4EEC77AF1EE10FA40F350819FED577A1D
:10166000F4EEC77AF1EE10FA40F1488194F83A307E
:10167000013384F83A3094F83A300A2B0BD90A2314
:1016800084F83A30E38E40F27162934240F238813E
:1016900040F22C63E386A779002F2ED0484BE18DD2
:1016A0001A79D0074CBF41F0010121F00101E18519
:1016B000E18D90074CBF41F0040121F00401E18568
:1016C00012F0080FE28D14BF42F0080222F0080267
:1016D000E2851A78920002F5777222865A78920093
:1016E00002F577726286DA789B7892009B0002F5A9
:1016F000777203F57773A286E386324932480BF09E
:10170000B3F908B1002F71D0E38D13F0010700F099
:10171000038194F83B30002B00F0FB8094F83C30C0
:10172000002B00F0F68009F0C1FBB5F904000CF0C5
:1017300039F8002221F00041244B0CF029FB50B96C
:10174000B5F902000CF02EF8002221F000411F4BE9
:101750000CF01EFB20B1002384F83B3009F0D6FBCF
:10176000E38D1B0705D51A4B4FF4C8721A8001236D
:101770006B74184913480023C2181289B2F57A7F96
:1017800038BF4FF47A72B2F5FA6F28BF4FF4FA629D
:101790005A520233082BEFD128E000BFDC1300209F
:1017A000640C002030230020400700206B0C002038
:1017B00024210020F8060020000048440000964440
:1017C000432100208C0C0020BB15010800E085405F
:1017D000C2090020FC200020DC20002004000020A2
:1017E000894909688A4201D9013D1D70874B1A68F1
:1017F00012F4805F9B4605D0854B1B68DF0701D440
:1018000009F084FB834A3168D37A0192002B00F0FF
:101810008F80013B8048527B30F913301AB1C3F5F9
:101820003B6308331BB2A3F57A73B3F57A7FA8BF85
:101830004FF47A7323EAE37307EE903ADFED776AA9
:10184000F8EEE77A87EEA67A754ADFED767A67EEEC
:10185000277AFCEEE77A17EE903A1380DBF8003037
:10186000DFF8ECA113F4807F00F0FF806E4BDFF80F
:10187000DC91994205D999F8022012B9012289F820
:10188000022099F80220002A00F0EF80604A9AF8BE
:101890000080116899F82170644D654E039201F043
:1018A000806308F00408029399F82020052A00F2CA
:1018B000DC80DFE812F0760093019E01C001D001C8
:1018C000EE01072998BF11F80810D9F80030384602
:1018D0009847013542E6574A1378002161710BB1F0
:1018E00011700123A37148E694F83830013364E69F
:1018F000012371E6002384F83930A3E60023B8E61B
:1019000040F2D65293428CBF40F28C534FF4AF63F7
:10191000C0E609F0FBFA08E709F0F8FA2A88012383
:1019200084F83B30632A98BF3B4684F83C3017E785
:10193000DBF80020150491D5226C8A1A002A8DDB71
:1019400001F59C42203222643B4A3C4D507A3C4A8D
:1019500032F81000019A80B2127B90FBF2F094F8FA
:101960004420013202F00F0284F84420224482F81D
:1019700045001A46505D01320344102A1BB2F9D1CA
:1019800093FBF2F31BB2002B09DB642BA8BF64238B
:1019900007EE903ADFED2B6AF8EEE77A52E7002384
:1019A000F6E7B8F1000F55D0274A1268D08806F044
:1019B000B9FB012807D1B6F805202968642000FB8F
:1019C0000212C9F81020029B5BB132794AB104F0CF
:1019D00015FB032289F820204FF47A72C9F81C20E5
:1019E00062E7012F41D02A68D9F81010914207D23E
:1019F00004F004FB032289F8202040F6B832EDE71A
:101A0000012289F820204FE72C230020F820002015
:101A1000FC060020DC200020FC20002000007A448E
:101A20005807002000C07F44404B4C00D4130020D6
:101A30009807002048210020F4220020A90C002053
:101A4000002300200000C842240800203423002086
:101A5000B8060020029B4FF48060002B00F0BB8092
:101A600005F0ECF90022C9F81020B44B1B68D888A7
:101A700006F058FB019B0746B1481B8AB0F90220CB
:101A8000029003F10B019142C0F219810B3B9A4283
:101A9000C0F21581B0F900209142C0F2108193424A
:101AA000CCBF00230123002F40F00B81A54A126810
:101AB000110140F10B81A44AD278002A40F006813E
:101AC0009AF80020520740F10181002B00F0F980C4
:101AD0009E4A137843F0200313709AF800305B0796
:101AE0001FD5DBF80030DE061BD5984B1B78DD06D2
:101AF00017D4974B1B78002B00F00581954B9B78F2
:101B0000002F40F0F180002B00F0FF80924B1A680C
:101B1000A36D9B1A002B80F2F88009F0F7F984F886
:101B20005C708C4B1D785978019B00225E8AB3F85B
:101B300014E01346029830F912009B08B042C4BF6B
:101B400063F07F03DBB201327045B8BF43F040035E
:101B5000042AEFD194F85D209A4240F0DA8094F89C
:101B60005E20F92A02D8013284F85E20784E84F88B
:101B70005D3033785BB9734B1B68D80740F1CB807D
:101B80002FB99AF80030D90701D509F08FF994F8E8
:101B90005E30142B40F004813378002B00F0EB8092
:101BA00094F85D305F2B06D19AF800305B0740F166
:101BB000DF8009F0ABF9002D00F0DD8094F85D3096
:101BC0007D2B40F0D8809AF800305F0740F1D0803C
:101BD00009F09CF9CFE004F041FA43E7012F01D16D
:101BE00005220EE7F279012A3FF402AF04F006FA6B
:101BF0005AE6012F04BF052289F82020B8F1000F12
:101C00000BD0019B4E4AB3F9101011805180918086
:101C1000B178F07841EA0021D1802A68D9F814100F
:101C2000914202D3B8F1000F45D147F23052C9F8C2
:101C30001C200322E5E69AF8002042F002028AF80E
:101C4000002009F063F92968D9F81C200A44C9F872
:101C500018200422D5E6012F14D12A68D9F81810CB
:101C60009142BFF402AF3A4B1A7822B9039B1A682B
:101C7000D0073FF5FAAE9AF8002022F002028AF867
:101C80000020ADE72968D9F81C200A44C9F81820BB
:101C9000EBE6B6F805202968642000FB0212C9F8BB
:101CA00010204FF48060002289F8202089F803205A
:101CB00004F0D4F9F8E5012F3FF4F6ADD5E60023A2
:101CC000F1E6224A137823F0200305E7234A24484B
:101CD000002313605360234A0360002111604360B6
:101CE000516083609160F8E633B11B4A12684FF48B
:101CF0007A7101FB0323A36594F85C30002B3FF459
:101D000010AF002302E0002FF6D1012384F85C30ED
:101D100007E7002228E79AF800305A077FF537AF27
:101D200094F85F30002B3FF432AF074BDB78002B89
:101D30007FF42DAFC1B109F0E9F828E724080020AD
:101D4000FC200020FC06002034230020C4090020D1
:101D5000000000206C070020D41300207011002028
:101D600054110020E4110020002F7FF410AFE2E7AF
:101D7000002384F85E309AF8003013F004020FD18B
:101D800094F85D30572B40F033814FF47A73A4F808
:101D90006030AE4B1B68580702D50A23A4F86230A6
:101DA000DBF800305F0727D594F86630A84A9BB16E
:101DB0009AF800305E070FD5029BB3F90610019B1D
:101DC0005B8A994208DD136813F0010302BF3221D8
:101DD000A4F8681084F866301368DD0340F194813C
:101DE00094F86A302BB994F8643013B93223A4F80C
:101DF0006830012384F86A30964B1E680027B51CB2
:101E00004FF0010852362A786B789A420AD2294656
:101E100015F8010C05F088FB20B115F8023C08FA12
:101E200003F31F430435AE42EDD1894B1F608A4B4B
:101E30001E78002E00F07881854E3368980709D40B
:101E4000DBF80030DA0540F14383844BDB78002B6C
:101E500000F03E837D4B1B689B0740F13983804B2C
:101E60001D8815F0010540F038837E4B01201D6070
:101E70005D6004F0E3FF33685F0740F13083002DBD
:101E800000F02D83012004F0E9F8754B1B8813F056
:101E9000020305D1734A02201360536004F0CEFFA1
:101EA00033681D054FF4807040F11D8304F0C6FFB8
:101EB0006D4B1B78082B01D00E2B02D1402004F073
:101EC000CDF89AF80030580766D43568DFED677AA8
:101ED000E9075CBF43F001038AF80030644BDB780C
:101EE00000EE103AB8EEC00A20EE270A04F00AFD10
:101EF000604B93ED088AB4EEC80AF1EE10FA5EBFAB
:101F00009AF8003023F001038AF80030F0EE408A9E
:101F100009F006F818B9584B1B88632B05D99AF8B5
:101F2000003023F001038AF8003008F0F9FF0028A0
:101F300040F0DC826A0100F1DC82484B93F82030EB
:101F4000032B00F0D682F4EEC88AF1EE10FA40F1CD
:101F5000D382414B1B78002B40F0D182464B1B882B
:101F6000632B464B98BF0023E36604F019F9236FF7
:101F7000C31A002B10DD636F012B9FBFE36E6367F5
:101F80000023E366636F0BB15B08636700F54330C2
:101F90003B4B00F5A0701867012384F8783094F863
:101FA000793003B3E38D5B0740F1AC82354B1B788E
:101FB000002B00F0A7822A4B1D8815F0080512D1CE
:101FC000082004F03BFF304B1A68304B1A60029B2C
:101FD000DB88A4F87A302E4BDB88A4F87C302D4BBC
:101FE0001D602D4B1D6009B0BDEC028BBDE8F08F6C
:101FF000DBF80010490711D55A2B0FD194F8643043
:102000002BB1012384F8642084F86530C8E694F885
:10201000663083F0010384F86630C1E65D2B00F082
:1020200075825B2B00F07B825E2B40F07A8203236B
:102030006DE215B17E2B00F0838294F85D30972B12
:102040002ED1164B4FF4C8721A80A9E6F406002070
:10205000FC060020840700208C060020342300208A
:10206000F806002070110020E406002035FA8E3CAE
:102070006C070020701300200607002055050200A1
:10208000640C00204C210020480700201014002080
:102090004C1100201C14002020140020C209002034
:1020A000A72B05D1B04A137843F00403137077E6E9
:1020B0000022BB2B079216D10223ADF81E30AB4B8A
:1020C000BDF81C101B681A880A441A80BDF81E103F
:1020D0005A880A445A8004F0E3FE05F0B7F800235A
:1020E00084F85E305CE6B72B02D14FF6FE73E4E76E
:1020F000BE2B03D10223ADF81C30E0E7BD2B7FF4EB
:102100004FAE4FF6FE73F6E794F86430002B3FF4C1
:1021100073AE9AF8003013F0040302BF84F8643001
:10212000012384F8653067E6914BDFF850821D6823
:10213000012705F148096A78AB789A4224D2691CD4
:10214000287805F0F1F9F8B169790C2303FB01F067
:1021500008EB00039A68954216D09D602A7908F82A
:1021600000205E60EA785A700C2A03BF03229F7039
:10217000DA709E7018BFDF7094F86B3007FA01F1C7
:1021800023EA010184F86B100635A945D3D1794AB9
:10219000794B12680392D3F8009094F85F20774E41
:1021A00004920027059396F80180B8F1000F68D0DB
:1021B0007368039AD31A002B0BDB02F5FA73736072
:1021C000012303FA07F294F86B3023EA020384F840
:1021D0006B30049B002B54D03378B2780433DBB2DD
:1021E000002A40F04181029A32F91320019B1B8A98
:1021F00003F1C8018A4231DDF57894F86B303B4138
:10220000D9073ED408F1FF33252B47D8DFE813F078
:102210003F004E0053005C006C0071008000900095
:10222000A000A600BA0046005C00650071008000B6
:1022300090007B008A009A00D200D800DE001A01CC
:10224000200126011401E400EA00F000F600FC0081
:10225000020108010E01C000C600CC00C83B9A4232
:1022600002DAF5786D42C8E7012303FA07F294F821
:102270006B3023EA020384F86B30039B03F5FA7397
:1022800073600137042F06F10C068CD1D4E5FA22D5
:102290002946484605F060FF04F0BAFF94F86B2029
:1022A0000123BB40134384F86B30EAE764222946DC
:1022B00009F10100EEE76422294609F1030005F067
:1022C0004BFF04F043FFE9E76422294609F10500CA
:1022D00005F042FFB8F10D0FE0D06422294609F164
:1022E000040005F039FFD9E7FF22294609F106006D
:1022F000F7E7234B1868C8222946013005F02CFF68
:10230000B8F10F0FCAD01E4BC82229461868E8E75B
:102310001B4B1868C82229460B3005F01DFFB8F189
:10232000100FBBD0164B1868C82229460A30D8E7D0
:10233000134B1868C8222946153005F00DFFB8F177
:10234000110FABD00E4B1868C82229461430C8E7CD
:102350000B4B1868C82229460230C2E7084B1868A0
:10236000C82229460C30BCE7C4090020AC07002075
:1023700088070020D41300207C0700206014002070
:1023800080070020704B1868C82229461630A8E73D
:102390006D4B1868C82229460730A2E76A4B1868B7
:1023A000C822294611309CE7674B1868C822294685
:1023B0001B3096E7644B1868C8222946033090E723
:1023C000614B1868C82229460D308AE75E4B1868B1
:1023D000C8222946173084E75B4B1868C822294673
:1023E00004307EE7584B1868C82229460E3078E73B
:1023F000554B1868C8222946053072E7524B1868B9
:10240000C82229460F306CE74F4B1868C82229466E
:10241000193066E74C4B1868C8222946063060E739
:10242000494B1868C822294610305AE7464B1868AD
:10243000C82229461A3054E7434B1868C822294657
:1024400008304EE7404B1868C8222946093048E753
:102450003D4B1868C8222946133042E73A4B1868AA
:10246000C82229461D303CE7012A7FF417AFB8F196
:102470000C0F7FF413AF029AF17832F9133040F663
:1024800033029342A8BF1346B3F5617FB8BF4FF440
:102490006173A3F561734FF4966292FBF1F293FBC3
:1024A000F2F32A4A1278DBB29A423FF4F7AE032BDA
:1024B000264A28BF00231370254A03EB430302EB8F
:1024C0008303059A136004F0A3FE04F085FEF8E68A
:1024D000012003F0C3FD0125CDE40025CBE402205B
:1024E00003F0BCFDDCE403F0B9FDE1E448F2551370
:1024F0003AE540F6150337E542F2550334E540F27C
:10250000052331E5082003F0A9FD6CE50123114AFC
:10251000013B137004F0C4FC04F098FE40E4022375
:10252000F5E7562B03D104F0BBFC04F08FFE3378A3
:10253000002B3FF482AD94F85D306F2B7FF479ADC2
:1025400008F0B4FC2CE400BF8007002080220020AB
:10255000822200200407002010F80A3C0133DBB27D
:102560000A2B00F80A3C07D910F8131C034A002371
:1025700022F8113000F80A3C704700BFA822002062
:1025800070B54F4C237814200133B3FBF0F200FBFD
:10259000123323704B4B5D68186C9A68A94208444B
:1025A0000CD293F84850002D00F0858000F5803063
:1025B000824238D3C2F5803202440AE08242F9D224
:1025C00093F84850002D0CBF00254FF48035821A37
:1025D000521B59606178DA600022013183F848208B
:1025E0001422986091FBF2F002FB10116170A17847
:1025F000D868013191FBF2F502FB1512A27040F68A
:102600008C2290423CD9197893F9452091422BD1E4
:102610000A1F082A28D893F84620182A06D801321B
:1026200083F8462004E04FF48035D0E783F8441067
:1026300093F9442091420FD193F8470060B1224CA6
:10264000224D0020904211DB204800240B2A13DD8C
:102650001F48027801320270012283F8472083F874
:10266000451000221A7070BD0022D9E754F8046F9B
:1026700025F810600130E5E720F812400132E5E767
:1026800093F84720D2B1A0F2EF2140F2DA52914202
:1026900007D81A780B2A04D8111D013243F82100FB
:1026A000E0E7002283F84720104699180432302AC8
:1026B0000861FAD170BD824289D37BE770BD00BF4B
:1026C000E40C00208804002094040020A8220020AC
:1026D000FD21002010B50B48037814240133B3FB0F
:1026E000F4F204FB1233084A0370136C01330B44F9
:1026F00013644FF6FF73994204BF012382F84830F8
:1027000010BD00BFE40C002088040020024B53F8E9
:1027100020301B68196070471C120020064B53F8CC
:102720002030A1F57A701A6819894FF47A73414301
:1027300091FBF3F1116070471C120020224B10B581
:10274000224C5343224AB2FBF3F203880139013A87
:10275000A04289B292B29BB20ED004F50064A042AE
:102760000AD0B0F1804F07D0A4F59834A04203D02E
:1027700004F58064A04202D123F070039BB2154C93
:10278000A04206D004F58064A0421CBF23F440732D
:102790009BB203800D4BC162984202850FD003F5B6
:1027A000006398420BD003F54063984207D003F5CD
:1027B0008063984203D003F58063984201D10023DF
:1027C00003860123436110BD40420F00002C0140ED
:1027D00000A24A0400100040026E036B70B504466C
:1027E000D56933B9A90604D5C36AD3B1908C80B238
:1027F0009847616B79B92A060DD5636AA26A9A4235
:10280000236E1BD0501CA669A062B25C1A85236996
:10281000984200D3A1622B0742BF236E08221A629E
:1028200070BDE169928C40694E1CD2B2E66142549F
:10283000E169E268914228BFE361DAE71A6822F0B1
:1028400080021A60E7E710B5046BC168034640696F
:1028500044B11A6C8C1A013A005D08BF0A46C0B236
:102860001A6410BD1A6A805C01328A4228BF22466F
:10287000C0B21A6210BD436B13B190F844007047A8
:10288000836A406A1B1A584258417047416A826AFB
:102890000369914238BFC9188A1A416B21B149684E
:1028A0000A44591E8A4203D2581E801AC0B2704789
:1028B00000207047036B5BB15B68026C9342A3EB33
:1028C000020301D3D8B27047C0681844C0B2704741
:1028D000C369026A93423BBFC068C018981A801A45
:1028E000F4E7836A8169426B1944D160416A8B4283
:1028F00023BF0169CB1A5360CB1A2ABF0023536050
:1029000083624FF0000380F84430136838BF81625F
:1029100043F001031360704730B40268057B5468CC
:102920000223AB40234353604268136823F0010342
:102930001B041B0C136051F82C2C51F8283C9A42B4
:1029400003D0A1F1500030BCCBE7012301F80C3CCF
:1029500030BC7047436A8269D154436A02690133CB
:10296000934228BF00234362436B1BB11B68DB0704
:1029700005D4B6E7026E136843F080031360704716
:10298000054B98420CBF054A054A138801339BB298
:1029900013800020704700BF00540040F006002064
:1029A000F206002038B510F80E2C50F8043C04460E
:1029B0005AB9012200F80E2C20F80C1C997A1868DC
:1029C0000222BDE8384005F07DB930F80C2C20F823
:1029D0000A1C891A89B220F8081C084A10F80F0C42
:1029E000002522F8101004F80E5C2A46997A18681F
:1029F00005F068F904F8065C38BD00BFA822002085
:102A00002DE9F0470669C368054689461E404FF028
:102A100000474FF000080EB9BDE8F087B6FA86F31C
:102A200027FA03F2D2431B3B2A611640042BF2D84B
:102A3000DFE803F02925211A0300D9F8244084B1E6
:102A4000013CA4B2C9F82480D9F820A0BAF1000F43
:102A5000E1D0DAF80030504621469847DAF804A071
:102A6000F4E7EC6AA4B2EFE7D9F80000696B0368F9
:102A700089B29847CFE7D9F80400A96BF7E7D9F8EE
:102A80000800E96BF3E7D9F80C00296CEFE701497E
:102A90000148B5E73C1300200048014001490248C5
:102AA000AEE700BFEC12002000400140014902489F
:102AB000A6E700BFC41200200008004001490248F8
:102AC0009EE700BF9C1200200004004001494FF027
:102AD000804095E77412002010B5054C054821464A
:102AE000FFF78EFF04F1C8010348BDE8104087E7F7
:102AF0004C120020002C01400044014001490248D2
:102B00007EE700BF4C120020002C014073B5054643
:102B10000068FFF713FE2A6813889BB243F0010395
:102B20001380EB7A8DF804300124002601A88DF87B
:102B300005408DF806608DF8074008F099F9EB7AAA
:102B40001B2B0BD1192301A88DF804308DF80540FB
:102B50008DF806608DF8074008F08AF902B070BD64
:102B6000134B800A984220D00AD84A3B984212D090
:102B70000133984211D0B0F5801F14D10120704765
:102B80000C4B98420BD0013398420AD0023B98423A
:102B900009D10420704702207047032070470520A8
:102BA000704706207047FE2070470020704700BF26
:102BB0004B00100051001000F8B50468054620468F
:102BC000FFF7CEFF062841D8AE7AB70839B90223FD
:102BD000BB40E568DB439BB22B40BE46E3600A2561
:102BE0001E4B05FB007543F82510043543F82520DE
:102BF0001A4631B1B6080223E168B3409BB20B43D9
:102C0000E36003B203EB8303DB0003F12001114413
:102C1000EFF31286502585F31288103313440425F0
:102C20001F6817B10F6019680431013D03F10403F7
:102C3000F6D10D60F3B283F31188282303FB002043
:102C4000036A23B1E36843F00103E360F8BDE3687E
:102C500023F001031B041B0CF7E700BF4C120020FC
:102C60000048B9E5781A00200048B5E5141A00209C
:102C70000048B1E5B0190020F0B5046E86682368FD
:102C800023F0010323608379054613F0020F407996
:102C900014BF4FF40052002213F0040F14BF4FF47E
:102CA0008067002710F0010F14BF04210021830763
:102CB000206820F001002060606820F4405042EA63
:102CC00000026260236823F4B05323F00C0348BF72
:102CD00041F008013B430B432360A36895B023F404
:102CE0004073A360684605F026FD284B9C4239D10D
:102CF0000C9A23681F0448BF5200B2FBF6F306FB90
:102D00001322B2EB560F226828BF0133160406D5F2
:102D1000C3F3420223F00F031B041B0C13439BB2AB
:102D2000A3816B79A87913F0020F0CBF00224FF436
:102D3000003200F00101DC0748BF42F480322B6E04
:102D400001B359680A435A609A6801074CBF42F0C0
:102D5000080222F008029A601A6842F001021A6022
:102D600015B0F0BD0A4B9C4201D10D9AC1E7094B49
:102D70009C4201D10E9ABCE7074B9C420CBF0F9AB4
:102D8000109AB6E7596821EA0202DCE700380140F0
:102D90000044004000480040004C004041716BE797
:102DA000816069E7F7B506460D46002401272A88A9
:102DB00007FA04F31A421AD0AA78009302F0030328
:102DC0008DF80430EB78022B03D0032B0CBF0323C8
:102DD00001238DF805306946C2F301133046C2F372
:102DE00081028DF806308DF8072005F05DFC013476
:102DF000102CDCD103B0F0BD2DE9F743DFF81892B9
:102E000099F803400746154600680A469846294641
:102E1000631C89F80330FFF791FC3B89ADF804305F
:102E200001A9022378688DF806308DF80730FFF786
:102E3000B9FF97F80AE03A6809F1040606EB0416B0
:102E40004946BEF10C0F36D8DFE80EF007353535B0
:102E50005735353582353535AC00136ADFF8BC910E
:102E600023F001031362136AD2F804C0906920F4BE
:102E7000803020F073004A4540F0700034D009F5EE
:102E800000694A4530D009F540694A452CD009F51A
:102E900080694A4528D009F580694A4524D043F025
:102EA0000303C2F804C09061C2F8348013629369CE
:102EB00043F0080393613B7B1BB1536C43F4004325
:102EC000536413889BB243F0010313802301BEF1C6
:102ED0000C0F00F28D80DFE80EF0878B8B8B928BCE
:102EE0008B8B968B8B8B9A0023F00E032CF4407CFB
:102EF00043F003034CF4807CD3E7136ADFF81C91A2
:102F000023F010031362136AD2F804C0906920F012
:102F1000807020F4E6404A4540F4E0400FD009F5C7
:102F200000694A450BD043F03003C2F804C09061F9
:102F3000C2F838801362936943F40063BAE723F060
:102F4000E0032CF4406C43F030034CF4806CECE76D
:102F5000136ADFF8C89023F480731362106AD2F802
:102F600004C0D3694A4523F0730343F0700310D0C3
:102F700009F500694A450CD040F44070C2F804C01D
:102F8000D361C2F83C801062D36943F00803D36177
:102F900091E720F460602CF4405C40F440704CF405
:102FA000805CEBE7136ADFF8749023F480531362BC
:102FB000106AD2F804C0D3694A4523F4E64343F4C7
:102FC000E04340F4405003D009F500694A4501D17F
:102FD0004CF4804CC2F804C0D361C2F84080106247
:102FE000D36943F40063D2E7C81802F134044460A3
:102FF000194430468D818A6003B0BDE8F083C8185B
:1030000002F13804F3E7C81802F13C04EFE7C818EE
:1030100002F14004EBE700BFE40C0020002C01406B
:10302000F8B5474E474C4000C7B24FF48055306862
:10303000C4F8C4504FF0000ED0F818C01CF4004F74
:1030400017D005F1FF3C4FF0010E6DB16546F3E777
:1030500030684FF4805185696D075FD5416A03F888
:10306000011B013AD2B23BE04FF0FF33C4F8C43049
:1030700059E0BEF1000F01D0C4F8C450FF2920D0A0
:103080004568DFF8C8E005EA0E0E47F4903545EADA
:103090000E0545604FF48055C4F8C450D0F818E0D0
:1030A0001EF0020F2DD081624FF48051C4F8C4107D
:1030B0000025D0F818E01EF0400F28D00DB1C4F85C
:1030C000C4104568204925F07F7525F4593525F44D
:1030D0007F7541EA024125F00305394329434160E8
:1030E000002AB5D14FF480533068C4F8C4308169E8
:1030F00089061ED50AB1C4F8C4302023C36101205B
:10310000F8BD05F1FF3E002DAED07546C6E701F1D2
:10311000FF3E01250029A7D07146CAE711F1FF3112
:1031200099D2C4F8C410FFF72BFC003018BF01205F
:10313000F8BD591E0122002B96D00B46D7E700BFE1
:10314000EC060020E40C002000240002009800FCA3
:10315000400070B5C4B23848384B00684FF4805511
:10316000C3F8C450866936040DD56E1E0DB13546C0
:10317000F8E74FF0FF32C3F8C420FFF701FC00303E
:1031800018BF012070BD466826F07F7626F45936B8
:1031900026F47F7644F0807526F0030645F49035DA
:1031A000354345604FF48055C3F8C4508669B6076F
:1031B0002DD581624FF48051C3F8C41085692E0665
:1031C0002AD5456825F07F7525F4593525F47F7596
:1031D00044F0007125F0030541F48031294341603A
:1031E0004FF48051C3F8C4108469A50719D58262D1
:1031F0004FF48052C3F8C42000218469A40615D579
:1032000009B1C3F8C4202023C361012070BD6E1E24
:10321000002DAED03546C9E74D1E0029A9D029465C
:10322000CCE74C1E0029A4D02146DDE7541E012125
:10323000002A9ED02246E0E7EC060020E40C0020A5
:103240001549D1F8883043F47003C1F88830134B26
:103250001A6842F001021A605868114A02405A6026
:103260001A6822F0847222F480321A601A6822F4FA
:1032700080221A605A6822F4FE025A60DA6A22F04A
:103280000F02DA62186B074A02401A6300229A6042
:103290004FF000638B60704700ED00E000100240CB
:1032A0000CC07FF8CCFC00FF2DE9F04F2DED0C8B0E
:1032B000C74BDFF85C839B78C64D93B05BBBD8F8F7
:1032C0000030C54A9B8C9FEDC59AC54C138007EE14
:1032D000903AB8EE670AC34B60EE090A0121204616
:1032E000C3ED000A03F016FBFCEEC07A04F10E00F9
:1032F00017EE903AA3816B689847A34600BBBA4B80
:10330000BA4E1B6813F0020F40F086810023336031
:103310007360B360F6E3D8F80030B54E5C6AB54F21
:10332000EB684BB902F03CFF33683A68E31A034498
:1033300064329342F4D3C2E798470028F2D0BEE744
:10334000AD4DB4F90E302B60B4F910306B60227DB6
:10335000B4F91230AB602946284607F02DFC238BC8
:10336000002B73D1A54EDFF8AC923388002B61D0CF
:103370009BF81630DFEDA28A002708EE103AA9F17B
:103380004808A9F13C04BA464FF47A70B6F800E058
:10339000BEF57A7F08BFC8F800A0D8F8003008BF93
:1033A000C4F810A0194655F82730194455F82730AD
:1033B000C8F8001007EE903A23690133012B4FEA59
:1033C0008702F8EEE77A236140F0D280C4ED017AFB
:1033D000C4ED007AC4ED028ABEF1010F45F802A0E7
:1033E00049F802A040F0E98023690390012BC2BF95
:1033F00003F1FF3307EE903A94ED037A0292CABFCD
:10340000F8EEE77AB0EE680A87EE270A08F0C4F80B
:10341000029A039818EE103A002B00F0C680F8EEDE
:10342000C87AF4EEC07AF1EE10FA40F1BE804FF4A3
:103430007A733380002355F8232059F82310521A49
:1034400045F823200133032BF5D158E7A27E002A4B
:1034500059D107EE903A9FED6B7A664BF8EE677A9A
:10346000B7EE008A67EE877A93ED007AB8EE477A76
:1034700027EE097AC8EE076AC7EEA68AB0EE680A98
:1034800003F0DEF9B0EE40AAB0EE680A03F03AFAB3
:10349000F0EE409A9FED5C0A68EE807A87EE8A0A29
:1034A00003F0CEF904F11C0304F188010022F0EED0
:1034B000487A38EE696AEAEE007AB6EE007A26EECD
:1034C000077AAAEE408AC7EE276AB8EE007A69EE5C
:1034D000879AC6EE275A88EE277A89EEA76A9A61FC
:1034E0005A611A62DA61243343ED096A43ED085ADE
:1034F00043ED076A03ED066A03ED057A9942EED1C2
:1035000001238BF81A30414C002655F82630D4EDB3
:10351000056A94ED010A94ED005AD4ED024A94ED47
:10352000077A94ED036AD4ED045A07EE903A26EE3A
:10353000800AF8EEE77A2434A7EE850A14ED035AE0
:1035400044ED047AA4EE850A44ED036AA6EE470A28
:1035500014ED016A04ED017AA5EEC60A04ED020A33
:1035600007F03EFE45F826000136032ECDD1F9E6E0
:10357000D4ED005A07EE103A37EEE56AB8EEC77A96
:10358000C6EE076A36EEA57AD4ED026A84ED017ABA
:1035900077EEC77A84ED007AE6EE276AF0EE667A77
:1035A000C4ED036AC4ED026A16E7D8F8003003F5EB
:1035B000FA7393FBF0F349F802300137032F08F157
:1035C000040804F114047FF4E1AE3388013B30E7D2
:1035D00070070020FC110020EA060020BD37863568
:1035E000040E002080110020F40600202822002074
:1035F000DC130020D41100201C070020C40C002084
:1036000000000000DB0FC940CA92283F200E0020B6
:10361000CC130020D40E0020E84B1B78002B3FF485
:1036200075AE02F0BDFDDBF8DC50E54FDFF8DCA342
:10363000CBF8DC00431B0DEE103A0024B8463B6883
:103640001978002900F0D48456F82430F8EE4D0A99
:1036500007EE903ADB4B0C20B8EEE70A00FB043093
:1036600060EE890A03F056F9FDEEC07A17EE903A43
:103670002AF814300134032CE1D1BAF90060BAF908
:103680000270BAF90450DBED415ADFF88493DFEDA4
:10369000CE8AB9F8084006FB06F307FB073364221D
:1036A00005FB05335343F8EE4D7AC84A029327EEE3
:1036B000899AD2ED007A92ED026AF8EEE76AD2EDCD
:1036C000017AF8EEE77A26EEA5CA67EEA5BAB8EE5B
:1036D000C66A2BEEAB0A26EE25BAACEE0C0A6443A2
:1036E000B7EE008AABEE0B0A07F056FF029B93FB86
:1036F000F4F3523B262BF0EE40CAB54C00F27C842A
:1037000007EE906AF8EEE79A07EE907A29EEA90A9A
:10371000B8EEE7AA07EE905AAAEE0A0AF8EEE7AA70
:10372000DFEDAC7AAAEEAA0AB4EEE70AF1EE10FADF
:1037300040F3628407F030FFC8EE007A94ED077A18
:1037400094ED085AD4ED065A6AEEA7AA69EEA79A34
:103750002AEE27AA67EE6A7AEAEE057A25EE695A1A
:1037600025EECAAAAAEEA55AA9EE87AA37EEA86A3C
:1037700035EE285A3AEE287AD8F80030D3ED015ABF
:10378000F5EEC05AF1EE10FA40F33E84DFED927A86
:10379000F4EEE7CAF1EE10FA17D565EE866ADBEDB6
:1037A000427AE9EE267A65EE856ACBED427ADBED68
:1037B000437AE9EE267A65EE875ACBED437ADBED64
:1037C000447AE9EE257ACBED447A844ED3ED025A61
:1037D0003378580700F12084814B1A6844F61F6340
:1037E0009A42F2EE046AF7EE007A98BFF0EE667A3B
:1037F00065EEA75ADBED426ADBED437A794D7A4AF2
:10380000D5ED004A92ED004A784B794FD3ED003A5E
:103810000392E6EE256A02939BED446AA7EE256AC1
:10382000E5EE257AF6EE005A69EE255A76EE8C6AB8
:1038300036EE0B6A26EEA57A77EEAB7A66EE256A4F
:1038400067EEA57A26EEA40A64EEE75AA7EE040A0C
:1038500097ED005AE3EEC75AA7EEC50A23EEE66AD3
:10386000E6EEC55AA7EE846A30EE230A67EEA37A25
:1038700075EE845AA7EE056AE6EE847A83ED000AB7
:1038800020EE000A36EE246AA5EEA50AE7EE647A79
:10389000A6EE060A77EE857AC2ED005AA7EEA70AD1
:1038A00085ED006AC7ED007A07F076FE88EE007AB3
:1038B000039A029BD2ED007A9FED4E8A67EE877ADB
:1038C000C2ED007AD3ED007A67EE877AC3ED007A15
:1038D000D5ED007A67EE877AC5ED007AD7ED007AEC
:1038E00027EE870A87ED000A02F018FBD4ED080ADC
:1038F00094ED070A404F02F031FF20EE080A07F06E
:103900006FFC94ED060A3880B1EE400A02F0F3FE37
:10391000DFED3A7A37EEC00A20EE080A07F060FCC5
:10392000D4ED000A94ED030A788002F017FF344BBF
:10393000D3ED007AE0EE487AB0EE670A07F050FC6B
:1039400002B2002AA8BFBA80D4ED085A2D4ADBED96
:10395000457A117894ED010A94ED048A94ED065AA3
:10396000B8BF00F56160F4EEE75AB8BFB880F1EE79
:1039700010FACCBF41F0080121F008011170224A71
:10398000BB88D380BAF90030D4ED007A39885180F1
:1039900006EE103ABAF902307988918007EE103AB3
:1039A000B8EEC77AB8EEC66ABAF9043027EE000A54
:1039B00006EE903AA6EE270A2CE000BF5C2200201B
:1039C000B8140020E40E0020000000001C070020B6
:1039D000701300200AD7233CC2B8B23EB8060020BC
:1039E000D413002068130020080000206413002076
:1039F0006C1300204C3D0F4442070020DB0FC93FF1
:103A0000A0140020C4090020242100201407002055
:103A100008070020D8F80030F8EEE66AD4ED027A04
:103A20005B78A6EEA70A012BD4ED077A27EE088A69
:103A300067EE277A94ED037AA6EE078A94ED057A6D
:103A4000E6EE057AA6EE878AE6EEA57AB1EE488A1A
:103A500040F0E682337859070FD4DBF81831402262
:103A600093FBF2F29B1A07EE103AB8EEC77A37EEE4
:103A7000277ABDEEC77A8BED467ADBF81831402203
:103A800093FBF2F307EE103AC54BDBED478AC54EC8
:103A9000C54CB8EEC77A1DEE105A77EEC77A93ED93
:103AA000007A39EE077A77EEE87AC9EE076AE6EE31
:103AB000A78ACBED478A07F093FB3368197802F0A9
:103AC0000BFE2368B0EE480A1844206007F088FB1C
:103AD0003368197802F000FE6368B0EE680A184493
:103AE000606007F07DFB3368597802F0F5FDA3684C
:103AF000AE4A18441368A0601D441560AC4A1368B0
:103B000001331360AB4AAC4B1668B3F906307289C7
:103B10009342C0F28882B3F5FA6FF579BFBF9B1A62
:103B20005D43C2F5FA6295FBF2F5C5F16405A34B5E
:103B3000A34C1B8A0393A34B1F68A34B1B68013B39
:103B40000493002164209C4B33F911C0039BACEB20
:103B50000303002B0293DCBF039BA3EB0C03B3F521
:103B6000FA7FA8BF4FF4FA7302294FEA410E02937D
:103B700000F05B823A782AB1029B9A42B4BF9B1A4A
:103B800000230293029B93FBF0F2904B02F1010899
:103B900033F9129033F91880029B6FF0630AA8EB97
:103BA00009080AFB023202FB08F292FBF0F24A44D7
:103BB00024F80E20721812795343854A93FBF2F3CE
:103BC000844A643355549BB26B4393FBF0F8049BD7
:103BD00013F8012F0493804B08FB02F292FBF0F2E2
:103BE0005A54049B1A7D08FB02F37C4A93FBF0F3C2
:103BF0005354039B9C45B8BF34F80E3001F10101CA
:103C0000BCBF5B4224F80E3003299CD16A4F6B4E37
:103C1000B7F90620718A8A42C0F23982B2F5FA6F8A
:103C2000A8BF4FF4FA62521A4FF47A735A436425CC
:103C3000C1F5FA636A49B2FBF3F292FBF5F303F1C3
:103C4000010E31F9130031F91E106FF0630E0EFBF7
:103C50000323091A4B4393FBF5F30344E380614BC1
:103C60001B885A0639D5604BDFED607AB3F9043012
:103C70000A2293FBF2F3BBF820219B1A1BB208EE39
:103C8000103AB8EEC88A28EE278AB0EE480A02F049
:103C900039FEF0EE408AB0EE480A02F0D1FDB4F9E8
:103CA000023007EE103AB4F90030B8EEC77A06EEEB
:103CB000903A67EE407AF8EEE66AE8EEA67A20EEF1
:103CC000260AFDEEE77AA8EE870A17EE903AFDEE97
:103CD000C07A238017EE903A6380B37B002B4AD0E2
:103CE000434B9A89B3F82201B0FBF2F0414A451CDC
:103CF00012782DB2A3F82451002A00F0CA81B3F93A
:103D00002691002203F5947803F5987E34F912C0C9
:103D10003EF812A038F812102EF812C0ACEB0A0AC6
:103D200011FB09F191FBF5F1514428F81210013211
:103D3000042AEBD12F4AA3F82601002111702C4A46
:103D4000B2F92651002D4FF0000340F3A881B2F9DB
:103D500024E102F5987C02F5947232F813103CF8D5
:103D6000130011FB05F191FBFEF1411A24F8131029
:103D70000133042BF1D1204B01221A701F4B9B6899
:103D80000BB11F489847174B198811F4027F44D094
:103D90001C4B1A7812F0100200F0BA8134E000BF18
:103DA000C0140020BC140020F8130020F0130020E1
:103DB000F41300207C070020FC200020DC200020E1
:103DC0004C11002024080020800700204E14002001
:103DD0000CFEFFFFC311002078110020B811002055
:103DE00028140020F80600204207002035FA8E3CF7
:103DF000040E0020DC0C0020DD0C0020FC11002053
:103E00003C0F0020C4090020A64AA74B106893F974
:103E10003A31628800FB03236380A44BA44D1B78D6
:103E20005BB1B7F90620738A9A4206DC2B780E2B19
:103E300003D0082B1CBF0023A3809E4B1B6893F864
:103E40000280B8F1000F30D08B072ED09A4BDFEDF7
:103E50009B7A93ED080AB4EEE70AF1EE10FA40F20D
:103E6000A08102F048FC964BD3ED007A20EE270AA1
:103E700007F0B6F9B0F5617FA8BF4FF4617007EEA7
:103E8000900AB8EEE77ADFED8F7A87EE270A02F024
:103E9000D7FC07EE908AF8EEE77A27EE800A07F063
:103EA0009FF900B2E3881844E080874B87495A891C
:103EB000874B0096D3F800808648874B00681B68C4
:103EC0000968C047854B8648DB780293854B1B7891
:103ED000032B18D9B5F804C0BCF5FA7F13D2B4F996
:103EE0000420B0F9048082EAE27EAEEBE27ECCF1FF
:103EF0000001A1EB0E02904504DB0CEB0E024245E3
:103F0000A8BF42468280784A116811F0006140F0F3
:103F10004A81B4F906E095F90240B0F90420B0F9FD
:103F200002C0B0F90080714D714864425443994217
:103F300000F11000C0F0A382B5F9001001229342F5
:103F400000F2C5826B486C4A00685488B2F8008061
:103F500000F480550995B7F90650778A0697978837
:103F6000368A3AB20792654A12680392644AB2F8F6
:103F700002C0B2F800A000F010000FFA8CF20A9014
:103F80004B480492594A90F80190A1420FFA88F0E8
:103F9000C8BF091B089002EB43030FFA8AF0CCBF9D
:103FA00089B2002105900B930B9B934200F07E8118
:103FB000138809985B1A1BB21380002800F09E82B8
:103FC000B9F1000F0AD10398B0F806E0A6EB0E0B8A
:103FD000AB4503DAB644AE4500F38A82AE4280F2C6
:103FE00081826345C0F27A82A342A8BF234676E26B
:103FF00056F82430FFF73CBBB0EE687AB0EE685A52
:10400000B0EE686AFFF7B8BBCBED428ACBED438ACE
:10401000CBED448AFFF7D9BBF7EE007AFFF7E8BB98
:10402000B9F808302EE5642581E57A782AB1029B3B
:104030009342CCBF9B1A00230293029B93FBF0F2A6
:10404000304B02F1010833F9129033F91880029BCA
:104050006FF0630AA8EB09080AFB023202FB08F2C0
:1040600092FBF0F2914497F90420524219FB02F9B5
:10407000A4F80490B279002BB8BF5B425343224AA4
:1040800093FBF2F3214A03F1640890709FE50A461E
:10409000C9E5B3F82621013AA3F826214FE6A2F894
:1040A000263168E620140020040E002000000020C5
:1040B000E4060020B4140020701300208FC2753C69
:1040C000C4140020EFB6B044700700207C07002025
:1040D0000C00002080070020AC07002034230020C3
:1040E000BC110020C2110020FC060020280700207F
:1040F000400F0020F82000208C070020240800201A
:104100001C080020401400200CFEFFFFC3110020FB
:10411000B94B1B78002B3FF480AEB848B7F9063096
:10412000B0F900001B1AB648006883EAE37580788E
:10413000A5EBE3758542B34826DD042293FBF2F339
:10414000B14A1360B14A0123137080F83B31B04B80
:104150001B7C33B1AD4B01221A70AB4B6FF01802D0
:104160001A60AC4BAC48B3F90020AC4B1B681A4446
:10417000038840889A4203DB90420346A8BF134657
:104180001BB2E380FB8248E690F83B31002BDED087
:10419000A34B80F83B211D68A24B1D609B4B1A70FE
:1041A000D5E700207EE695F902C0B0F90420B0F909
:1041B0000280B0F900909C4D0020CCF1000C02FB75
:1041C0000CFC014686460DF1300A9E45C0F0878002
:1041D000964A914D0B1A116811F4805F1BB29046FC
:1041E00000F0C080924A87481278B7F90640318AB9
:1041F00012F0040F04BF328AA0F8FC21804A126832
:10420000D7888C4ACE1BB44200F39480B2F90010D8
:10421000B5F90020A0F8FC4189B21FFA82F9A1EBA0
:1042200009020FFA82FA5345834E844A40F3AF8065
:1042300007EE903AB8EEE77A07EE90AAF8EEE77A42
:10424000012187EE878A117000270DF1300B33783A
:104250009F42C0F08E8002229AFBF2F24A4412B2D0
:10426000114633780693D8F80030664F74482E888C
:10427000B5F802E0B5F8049003F480530793B7F95A
:10428000FC3103936F4B1B8A04935D4B1B680593B2
:10429000684BB3F80280B3F800A007F59E730025C1
:1042A0000DF1300B0893069B9D427CD3604B1B782D
:1042B00013F0040306D1604A6149127862489342C0
:1042C000C0F039814F4B93F8FE31002B00F039815B
:1042D00013B0BDEC0C8BBDE8F04F01F071BD07EEE3
:1042E00090CAB8EEE77A07EE908AF8EEE76A07EE32
:1042F000909A95ED016AF8EEE77A67EE867A95ED89
:10430000026AE6EE867AD5ED036AE7EE267AFDEEDE
:10431000E77ACDED037ABDF90C202AF81E208A42F7
:1043200003DC9042A8BF10460A460EF1010E10357C
:1043300011464AE739448C4204DBB5F90210B2F960
:10434000022067E7B0F9FC118E42ABBFB2F9004022
:10435000B2F90240B5F90020B5F90210ACBF214610
:10436000224659E7B4F90640B5F90020B5F9021024
:1043700052E73BF9173000EE103AB8EEC00A20EED3
:10438000080A06F02DFF2BF8170001375FE7002021
:104390001070022293FBF2F39BB209EB0302C91ADD
:1043A00012B209B25DE7089F3BF8153007EE904A5C
:1043B00007EB051C9CED007AF8EEE77A944667EE71
:1043C000877AFDEEE77A17EE907A974204DB8F4208
:1043D00017EE90CAA8BF8C466344029F1BB20380AD
:1043E000A7B34B4503DB7345A8BF734600E04B46BC
:1043F00003800135023056E74C210020DE0C0020FE
:1044000024080020040E002014140020241400208E
:1044100024210020E00C00208C0700202014002024
:104420004807002010140020400F0020F820002032
:10443000B80600201C080020C211002060110020D6
:1044400028070020DC200020AA090020079F97B140
:10445000059FB7F806C0049FA7EB0C0C039F6745A8
:1044600005DCB34209DB5345A8BF5346C0E74345CB
:10447000B9DA4346BCE7B342B5DA3346B8E707EEEC
:10448000904AB8EEE77A07EE908AF8EEE76A07EE10
:1044900090EAB8EEE76A07EE90CA50ED025AF8EEDD
:1044A000E77A67EEA57A50ED045AE6EE257A10ED2C
:1044B000036AE6EE867A50ED016AE7EE267AFDEEB3
:1044C000E77A17EE902A25F8112001312FE535F90A
:1044D00012008142B8BF0146013230E563461380C5
:1044E000023261E5BB420EDB5345A8BF5346F6E7F7
:1044F000059B0498AE42B8BF0346F0E7029820B18E
:10450000BB42BFF671AD3B46E9E743450BDBA34237
:10451000A8BF23461380069B9D42E1DA0A9B23B184
:10452000BDF81C30DBE74346F4E7B9F1000FD7D103
:10453000BDF82030D3E730F8134021F813400133A1
:10454000BDE613B0BDEC0C8BBDE8F08F2DE9F0415A
:104550000D4D0E4FDFF83C8000242E19605905F0F8
:10456000DBFF716811B1384605F0CAFDB16811B1C1
:10457000404605F0C5FD0648103405F0CDFFB4F502
:10458000B87FEAD1BDE8F081DC000108BF15010861
:10459000051F0108C51501082DE9F84F054608F06B
:1045A0002FFC344E0446D6F80090B8B93248334D4B
:1045B000334F05F0B1FF012655F8241049B106FA32
:1045C00004F313EA090F02D0384605F099FD0134CF
:1045D000F2E72C48BDE8F84F05F09EBF02462A4995
:1045E000284608F07BFC60B92848294C244D05F08A
:1045F00093FF54F8041F0029EBD0284605F080FDF6
:10460000F7E72B78DFF874B02D2B03BF013504F1E9
:10461000FF344FF0010A4FF0000A4FF000085BF83A
:1046200028700FB91B48D5E722463946284608F0BE
:1046300055FCE0B9012303FA08F3190601D5164821
:10464000C8E79A05FBD4BAF1000F0BD029EA03039F
:104650001248336005F060FF39461148BDE8F84F55
:1046600005F04EBD43EA090333600E48F2E708F156
:104670000108D4E7B0070020CB1501084C0201085F
:10468000D5150108051F0108D9150108DE15010817
:1046900048020108EA150108F91501080716010882
:1046A000941C01081016010838B5094D094805F099
:1046B00033FF286801F076FE074B00241C701C6352
:1046C000064B1C7001F00EFC05F088FF2C6038BD15
:1046D000B406002018160108041000208C060020E3
:1046E0002DE9F843104DDFF84480DFF8449006468A
:1046F00000242F462B7903F03003B3420CD104EB96
:1047000004134046F95805F0FBFC2846002105F04B
:10471000E1FD484605F000FF01347A2C05F1110552
:10472000E8D1BDE8F88300BF600A0108441601081B
:10473000051F01082DE9F8430D46164604464FF0C3
:10474000000940F634074FF019082046202108F0F0
:1047500013F90446B0B10134204606F06FFCB842AC
:10476000A8BF3846B0F5617FB8BF4FF46170A0F5BF
:10477000617090FBF8F0B9F1000F0BD1287033781D
:104780000133337009F10109B9F1020FDDD120467F
:10479000BDE8F8836870F2E72DE9FF4104788046B0
:1047A000F4B9DFF8D080324F1926D8F8002002EB98
:1047B00084004FF4617EC578437812F8242016FBFC
:1047C00005E50195817816FB01E100913846214607
:1047D000013405F095FC142CE7D104B0BDE8F0815C
:1047E00006F02CFC132806463BDC224B87001D6894
:1047F0002021002308F101008DF80F3008F0BCF8EB
:10480000044660B10134204606F018FC1B289FBF07
:1048100005F826009DF80F3001338DF80F30204643
:10482000202108F0A9F8044660B10134204606F0C2
:1048300005FC0D2806D8EB1958709DF80F30013390
:104840008DF80F30B91C0DF10F0229442046FFF7F7
:1048500071FF9DF80F30042BBFD0002345F82630A0
:10486000BBE7132300220449044805F049FCB4E7E0
:104870004E16010884070020631601086916010816
:10488000014805F049BE00BF881601082DE9FF4127
:10489000044608F0B5FA08282AD1214D621EE01D11
:1048A000537829681944497801F00301022908BFA7
:1048B000203B02F8013F9042F2D1DFF8708025469C
:1048C00004F1080715F8016B4046314608F054F82A
:1048D00020B13146284608F04FF820B1FFF7D0FF4D
:1048E00004B0BDE8F081AF42ECD1204603F0FCFB00
:1048F0000C480D4C05F010FE0C4800231A5D04A96D
:104900000A44195C02F80C1C0133082BF6D1002371
:1049100001A907488DF80C3005F0F2FBE0E700BF75
:10492000E002002096160108DC200020E8080108BB
:10493000951C01082DE9F041047806467CB92A4D02
:104940002A4E35F8242005EB840321465B88304647
:10495000013405F0D5FB042CF3D1BDE8F0812449E6
:1049600007F0C4FF20B92348BDE8F04102F0AEB81B
:10497000304606F063FB032805462CD8202130463C
:1049800007F0FAFF044668B10134204606F056FBF2
:10499000012607462021204607F0EEFF20B9BDE89A
:1049A000F0416DE70646F5E7013006F047FB002EC3
:1049B000F5D0A7F2EE2240F2DC539A42EFD8A0F2F3
:1049C000EE229A42EBD8084B23F8257003EB8503BF
:1049D0005880BDE8F0810323002207490748BDE85D
:1049E000F04105F08DBB00BF582300209C16010844
:1049F000AF1601084C290108742001086916010846
:104A00002DE9F043047885B00546002C3FD1754868
:104A1000754DDFF80482754F05F07EFD2146744C1C
:104A2000D5ED007AF5EE407AF1EE10FA2CD0404642
:104A30004E1C05F065FB95ED000A684601F056FD39
:104A40000146204605F05CFB95ED010A684601F041
:104A50004DFD0146204605F053FB95ED020A6846E0
:104A600001F044FD0146204605F04AFB95ED030A9E
:104A7000684601F03BFD0146384605F041FB0C2E2F
:104A800005F110053146CBD105B0BDE8F083052214
:104A9000584908F023FA38B9534900220B1810304E
:104AA000C0281A60FAD1EFE704225349284608F0DB
:104AB00015FA0446002842D12021284607F05CFF61
:104AC0000028E1D0461C304608F09AF9DFF84C8106
:104AD0005FFA80F958F824701FB9484805F01CFDAA
:104AE000D2E74A463946304608F0F8F9013405461F
:104AF0000028EFD13C4A034616460020D118103357
:104B0000C02B0860FAD13E4B03EBC404D4F8D0E1CB
:104B1000BEF1000F03D094F8CCC1654507DB3946E0
:104B2000384805F0EDFA3848FFF76AFFACE72B018B
:104B3000F41873440FCB013584E80F00EDE72846E5
:104B400006F07CFA0B28064644DC2846202107F0B4
:104B500013FF054688B30135284601F03FFC2B4B77
:104B600003EB061383ED0D0A01242846202107F0EC
:104B700003FF054648B10135284601F02FFC234BC1
:104B800003EB061383ED0E0A01342846202107F0BB
:104B9000F3FE054648B10135284601F01FFC1B4BCA
:104BA00003EB061383ED0F0A01342021284607F09A
:104BB000E3FE20B9FFF764FE66E70446D5E701305F
:104BC00001F00CFC114B032C03EB061686ED100ACA
:104BD000F0D1A8E70B2300220D490E4805F090FA0A
:104BE00052E700BFB516010838100020951C0108D7
:104BF000D6160108AF160108DA160108EA150108F1
:104C0000DC000108DF1601082E1C0108041000203A
:104C10006316010869160108D01601081809010871
:104C20002DE9F041047886B0074614BB4A4F4B4E3D
:104C30004FF006083A6808FB04F3D118D35C0879F2
:104C40004A790390C87802908D784FF4617E1920DC
:104C500010FB05E50195497810FB01E00090214625
:104C60003046013405F04CFA0C2CE3D106B0BDE817
:104C7000F08106F0E3F90B28054666DC364B062684
:104C80001C6846430023781C20218DF8173007F05C
:104C900073FE074660B10137384606F0CFF90328A6
:104CA00006D8A31958719DF8173001338DF81730C5
:104CB0003846202107F060FE074668B101373846C4
:104CC00006F0BCF90D2807D806236B43E0549DF885
:104CD000173001338DF81730711C0DF11702214484
:104CE0003846FFF727FD202107F046FE074670B142
:104CF0000137384606F0A2F9262808D8062303FB18
:104D00000543D8709DF8173001338DF817302021F6
:104D1000384607F031FE68B1013006F08FF90D28F2
:104D200008D8062303FB05459DF817302871013389
:104D30008DF817309DF81730062B97D0A219002355
:104D4000A3519380FFF79CFD90E70B2300220449B9
:104D5000044805F0D5F989E788070020EB1601081B
:104D600063160108691601082DE9F0430278534CD7
:104D700087B00646AAB9DFF85081514D514E04F173
:104D8000280794F90210002313F908208A4273D0EF
:104D90000C333C2BF8D10834BC42F2D107B0BDE84B
:104DA000F08300250495059506F048F9013640B2D8
:104DB0002B46DA00111991F90210814278D00133A3
:104DC000052BF6D1002425463046202107F0D4FDDE
:104DD000064638B10136304606F030F90135ADF8F7
:104DE0001200EDB2DFF8E4900027A9F52778202122
:104DF000304607F0C1FD20B3461C304606F01EF9D0
:104E0000002159F821209042CBB203D0013108296A
:104E1000F7D1002308EB8302D2F89C22904210D1F4
:104E2000022F19D0032F1CD05A1E012FD2B20ED040
:104E3000042A03D88DF814300135EDB20137042F60
:104E4000D5D1052D13D807B0BDE8F04318E5042AE5
:104E5000F4D88DF81530EFE7052BEFD88DF8173023
:104E6000EAE79A1E052AE9D88DF81630E4E704AB84
:104E700003CB2060616091E7637AA079A28805EB9B
:104E8000830305EB8000D3F89C320293237A05EB71
:104E90008303D3F89C320193E37905EB8303D3F8C2
:104EA0009C320093D0F89C32304605F029F972E725
:104EB000023214448DF81000012585E7BA0600205F
:104EC000DC0001080B170108E00700207803010847
:104ED000F7B50478054654B901A9204603F06FF9E7
:104EE0000134FFF7F5FF122CF6D103B0F0BD06F048
:104EF000A5F8C4B2112C64D8681C202107F03CFD31
:104F0000324DD0B9324B13F814108A1E5142514120
:104F10002F4B13F81420154495F8BC2200294BD0D0
:104F200003EB440340F2EE215B78192000FB0313EE
:104F30002848214605F0E4F8D7E705F52F76471C09
:104F40004178304607F018FD58B1032C8CBF03237D
:104F50000023801B2B4453FA80F090F8C062032E8C
:104F600002D1FFF78DFCC0E72021384607F004FD91
:104F7000F8B1022EF5D1013006F060F840F6CA0211
:104F800080B29042124BA8BF104640F2EE229042EF
:104F900003EB4403B8BF1046A0F2EE20192290FBA9
:104FA000F2F05870B31E59425941094B03F814608E
:104FB000AEE7022EF6D1D4E72146074805F0A0F867
:104FC00093E71123002205490548B3E7DC000108F7
:104FD000BA0700202A1701083C17010874200108AD
:104FE000691601082DE9F0472DED048B8C4984B03A
:104FF000044607F07BFC8B49002820460CBF0126A5
:10500000072607F073FC88490028204608BF0226BF
:1050100007F06CFC002808BF0426F10740F1C680A9
:105020008248834CDFF87492824FDFF8748205F077
:1050300073FA002005F073FB7F4805F06DFA7F4896
:1050400005F06AFA7E4B7F4A1B787F48013B0025BA
:1050500052F8231005F054F87C4805F051F894ED0F
:10506000008AB5EE408AF1EE10FA1FD17848794CEB
:10507000794D05F051FA794B1F6854F8041F002947
:1050800068D1DFF82082DFF820A20D464FF0010939
:1050900058F82540002C61D009FA05F33B4203D0B3
:1050A0002146504605F02CF80135F1E729464846DF
:1050B000D4ED019A94ED029AD4ED038A05F020F81C
:1050C000B5EEC08AF1EE10FA02D5202005F010F8F6
:1050D000B0EE480A684601F009FA0146384605F084
:1050E0000FF8F5EEC09AF1EE10FA02D5202004F088
:1050F000FFFFB0EE690A684601F0F8F9014638464C
:1051000004F0FEFFB5EEC09AF1EE10FA02D52020B1
:1051100004F0EEFFB0EE490A684601F0E7F90146F7
:10512000384604F0EDFFF5EEC08AF1EE10FA02D534
:10513000202004F0DDFFB0EE680A684601F0D6F9E1
:1051400001350146404604F0DBFF0C2D04F110044C
:1051500085D18BE7284604F0D3FF8EE7404805F061
:10516000DBF921463F48404C0B5D04AA13440A5C1E
:1051700003F8102C01310829F6D1694600243B4878
:105180008DF8084004F0BCFF394805F0C5F93948EE
:10519000FFF7EAFD384804F0B3FF2046FFF7A0FA16
:1051A000364805F0B9F93348FFF792FEB20720D52B
:1051B000334805F0B1F9334805F0AEF92D4805F054
:1051C0001FF9314805F0A8F92A48FFF7E5FA2F48FA
:1051D00005F0A2F92748FFF723FD2D4804F090FFC2
:1051E0002448FFF7A7FB244804F08AFF1020FFF7AC
:1051F00077FA73070ED5274805F08EF9264805F093
:105200008BF91C4805F0D6F81B4804F079FF2020E4
:10521000FFF766FA04B0BDEC048BBDE8F08700BF71
:105220004B170108981A010852170108581701086E
:1052300038100020C8150108661701087817010802
:10524000E406002018090108841701088F170108D7
:105250009C17010848020108B4170108B007002094
:10526000CF170108E8080108DC200020DB1701083F
:10527000E41701082E1C0108051F0108F317010897
:105280000018010813180108211801082B1801083B
:105290003A1801084818010859180108AC17010804
:1052A000951C01084C020108C217010808B5044802
:1052B00005F032F9034B1868BDE8084001F072B8F8
:1052C0006B180108B406002002884FF6FF739A425B
:1052D00070B504461FD0114D0626052085F8F460F0
:1052E00004F0FCFC304604F097FC002004F094FC31
:1052F000002004F091FC2088000A04F08DFC207846
:1053000004F08AFC04F0CCFC05F1F5001021BDE8A6
:10531000704004F015BC012070BD00BF04100020D7
:1053200038B50124084D204685F8F44004F0D6FC39
:10533000204604F071FC04F0B3FC05F1F5001021E7
:10534000BDE8384004F0FCBB041000202DE9F0411A
:105350000B4DDFF830802C686A69012714400CB9C6
:10536000BDE8F081B4FA84F3C3F11F0307FA03F632
:1053700058F823000368984724EA06046E61EEE7B4
:10538000000401400C1100202DE9F04F85B081464A
:105390000393A54B02911C88019214F0020412D0D1
:1053A000A24BB3F94040B3F94230002CB8BF64427D
:1053B000002BB8BF5B429C42B8BF1C46B4F5007FCF
:1053C000A8BF4FF400749A4E0025A6F14808994BE7
:1053D00033F91520984B53F82530002B4FF004017A
:1053E00093FBF1F1B8BF5B42B3F5206F4FEA450A7A
:1053F0004FEA42024FEA850E00F3F8803368501AF4
:105400000344B3F57A5FA8BF4FF47A538B488342C5
:10541000ACBF336030608A4B1B681F0115D5894BC8
:1054200089481B7813F0200F04D198F85430002BD2
:1054300000F0DF8050F80E00376843429F4203DBE4
:1054400087423B46A8BF0346336009EB0503376834
:105450009B7A7548FF115F43008819F80530800773
:1054600002FB03F34FEAA7174FEAA3133ED00198BC
:105470004042824203DB01989042A8BF1046734A23
:10548000DFF8DCC13AF90220801A039A32F91520BC
:1054900010445EF80C2042F2107B02445A45A8BF2B
:1054A0005A46DFF8C0B15A45B8BF5A464EF80C20EC
:1054B00099F807C000FB0CF099F81BC00CEB8C0CA2
:1054C000C011CCF1000B584503DB6045A8BF604616
:1054D000834699F8110042431213BF1AA3EB0B0342
:1054E0006743634302EB67270BEB6323584A12F8C9
:1054F00005B001FB0BFBA3EBAB1B131D3AF903201B
:105500002AF80310521AB9F82210002978D007EEB1
:10551000902A08330C20D8ED1D0AC9B2B8EEE70A6C
:1055200000FB053001F0F6F905F05AFE00EB4000F3
:10553000484A535D5F4458430432013507EB60101D
:10554000022D2AF8020006F104067FF440AF029B08
:105550009A790F325300B8F944205A435211364B0E
:10556000002A9B684FF0040193FBF1F3A2EB0303C5
:10557000B8BF5242322A51DCD8F8501099F80C20AA
:1055800003FB021234498A42A8BF0A4633498A42C1
:10559000ACBFC8F85020C8F8501099F80220534307
:1055A000224A92F8B620032A4FEAA3130AD9B9F87F
:1055B0002020B2F5FA7F05D251428B4232DB934272
:1055C000A8BF1346D8F8502042F34F32B2F5807F7F
:1055D000A8BF4FF480726FF0FF018A42ACBF9B18E6
:1055E0005B18A8F8B43005B0BDE8F08F0023336035
:1055F00011E73368002BB8BF5B4240F80E3024E758
:1056000003F12C0134335EF801C05EF803004EF85C
:105610000120604410444EF803C089E70022C8F816
:105620005020BAE70B46CDE7F80600200C11002009
:10563000541100204C1100201C07002080C1FFFFE6
:10564000FC060020C409002064110020420700204D
:1056500078110020B8110020FEFFFF0F020000F0BB
:1056600070110020F0D8FFFF2DE9F04F87B0814680
:105670000493A14B03921E8816F002060D4629D012
:10568000109B1E8A0020314601F072FF314604460D
:10569000012001F06DFF002CB8BF64420028B8BFA4
:1056A00040428442B8BF0446C4F5FA73052493FB14
:1056B000F4F35BB20A26643B734399F81B60F6105F
:1056C0005E43642396FBF3F61E449E42A8BF1E462B
:1056D00026EAE6762B1DDFF854B202934FF000085D
:1056E00009F1FF33029A12F8014B0292B8F1020F4E
:1056F00004F11B0440F0C080BBF944205443641102
:105700007E4A13F8017F7E4852F82810042291FB4C
:10571000F2F2A41A04FB07F518F800700192B8F130
:10572000020F07FB05F74FEA880A4FF0640597FB65
:10573000F5F74FEAE71720D1B9F8241079B107EE51
:10574000907ADBED1D0A0593B8EEE70AC9B2053081
:1057500001F0E0F8FDEEC07A059B17EE907AB9F8FB
:10576000202052B19BF8B610032906D95142B94204
:1057700000F3B0809742A8BF1746DBF8C820614904
:10578000987A5AF8011095B26543ED1200FB0515A1
:10579000B5F5001F5C49A8BF4FF400158D42B8BF96
:1057A0000D465A490968090113D55949097811F07C
:1057B000200F584904D19BF85400002800F08C8039
:1057C00051F80A004142A94200F38D808542A8BFEA
:1057D00005464C49DFF854E14AF80150197D6D1334
:1057E000002900F0868099F826000EF1CC010028EF
:1057F0007BD151F80A00019C001B41F80A40C2F31A
:105800000B124FF6FF71B1FBF2F2B9F822105043C0
:10581000401181B107EE900A3F4ADEED1D0A019367
:105820000C20C9B2B8EEE70A00FB082001F072F8BC
:1058300005F0D6FC019B1A7D38495043304A12F8D6
:1058400008204243642092FBF0F21212B2F5007F6E
:10585000A8BF4FF400728A42B8BF0A463D4430499F
:105860002A4421F8182008F10108B8F1030F7FF449
:1058700039AF07B0BDE8F08F2A4A32F918101E4A36
:1058800010884C4387074FEA48054FEA24143FF439
:1058900037AF039A49005242914203DB039A8A428E
:1058A000A8BF0A462049695E521A049931F91810B6
:1058B000C0070A4404D599F80740544324111FE750
:1058C00099F811104A437243642192FBF1F204EB00
:1058D000221415E70F4650E785EAE570A0EBE57066
:1058E00041F80A0075E70D4673E751F80A00201ADF
:1058F00083E70A46B2E700BFF80600201C07002035
:10590000C3110020541100200000E0FFFC0600201D
:10591000C4090020641100208411002000FEFFFF54
:10592000BC1100204C110020420700200C11002067
:105930002DE9F04F2DED088B85B093460193D84BA0
:1059400002931A8812F0020F0546894600F053812F
:10595000169B1E8A0020314601F00AFE314604469D
:10596000012001F005FEEA7E002A00F044810028B3
:10597000B8BF4042002CB8BF6442A042B8BF204626
:10598000C0F5FA7007EE900A9FEDC67AF8EEE77A56
:105990006423C7EE876A93FBF2F307EE903AB7EE03
:1059A000007A76EEC76AF8EEE77AF0EE479AE6EE0E
:1059B000A79AF5EEC09AF1EE10FA00F11C81F4EE10
:1059C000479AF1EE10FAC8BFF0EE479ADFF820834D
:1059D0009FEDB5AA09F1040908F10C060024A8F10D
:1059E000D80719F8013B6200022C03F11B03039254
:1059F00040F00481B7F94420534307EE903AFAEEA1
:105A0000ED7AAA4B9FEDAA7A53F82430DFF8E4A28E
:105A1000DFEDA8AA09EE103AB8EEC99A2B5D29EE7F
:105A2000079A97ED407A29EE079A9FEDA37A37EE11
:105A3000C98A07EE903A28EE077AF8EEE77A14F86A
:105A40000A3027EE877A07EE903AF8EEE77A022CD2
:105A500067EE277A4FEA840287EEAABA504629D128
:105A6000A98C59B1C9B205300392B0EE4B0AD7EDFB
:105A70001D0A00F04FFF039AB0EE40BA2B8CCBB159
:105A800097F8B610032915D9594207EE901AF8EE87
:105A9000E77AF4EECB7AF1EE10FA00F3EB8007EE42
:105AA000903AF8EE677AF4EE4B7AF1EE10FA48BFCE
:105AB000B0EE67BA2B19DFED817A997AD7ED1D0A1E
:105AC000F8EC018A68EE277A07EE101A67EEA07AE2
:105AD000B8EEC77AE7EE878ADFED797AF4EEE78AE7
:105AE000F1EE10FA00F1C980DFED767AF4EE678A04
:105AF000F1EE10FAC8BFF0EE678A73490968090130
:105B00001CD57249097811F0200F714904D197F81A
